{
  "_format": "hh-sol-artifact-1",
  "contractName": "OpenDoc",
  "sourceName": "contracts/OpenDoc.sol",
  "abi": [
    {
      "inputs": [
        {
          "internalType": "address",
          "name": "initialOwner",
          "type": "address"
        }
      ],
      "stateMutability": "nonpayable",
      "type": "constructor"
    },
    {
      "inputs": [],
      "name": "ERC721EnumerableForbiddenBatchMint",
      "type": "error"
    },
    {
      "inputs": [
        {
          "internalType": "address",
          "name": "sender",
          "type": "address"
        },
        {
          "internalType": "uint256",
          "name": "tokenId",
          "type": "uint256"
        },
        {
          "internalType": "address",
          "name": "owner",
          "type": "address"
        }
      ],
      "name": "ERC721IncorrectOwner",
      "type": "error"
    },
    {
      "inputs": [
        {
          "internalType": "address",
          "name": "operator",
          "type": "address"
        },
        {
          "internalType": "uint256",
          "name": "tokenId",
          "type": "uint256"
        }
      ],
      "name": "ERC721InsufficientApproval",
      "type": "error"
    },
    {
      "inputs": [
        {
          "internalType": "address",
          "name": "approver",
          "type": "address"
        }
      ],
      "name": "ERC721InvalidApprover",
      "type": "error"
    },
    {
      "inputs": [
        {
          "internalType": "address",
          "name": "operator",
          "type": "address"
        }
      ],
      "name": "ERC721InvalidOperator",
      "type": "error"
    },
    {
      "inputs": [
        {
          "internalType": "address",
          "name": "owner",
          "type": "address"
        }
      ],
      "name": "ERC721InvalidOwner",
      "type": "error"
    },
    {
      "inputs": [
        {
          "internalType": "address",
          "name": "receiver",
          "type": "address"
        }
      ],
      "name": "ERC721InvalidReceiver",
      "type": "error"
    },
    {
      "inputs": [
        {
          "internalType": "address",
          "name": "sender",
          "type": "address"
        }
      ],
      "name": "ERC721InvalidSender",
      "type": "error"
    },
    {
      "inputs": [
        {
          "internalType": "uint256",
          "name": "tokenId",
          "type": "uint256"
        }
      ],
      "name": "ERC721NonexistentToken",
      "type": "error"
    },
    {
      "inputs": [
        {
          "internalType": "address",
          "name": "owner",
          "type": "address"
        },
        {
          "internalType": "uint256",
          "name": "index",
          "type": "uint256"
        }
      ],
      "name": "ERC721OutOfBoundsIndex",
      "type": "error"
    },
    {
      "inputs": [
        {
          "internalType": "address",
          "name": "owner",
          "type": "address"
        }
      ],
      "name": "OwnableInvalidOwner",
      "type": "error"
    },
    {
      "inputs": [
        {
          "internalType": "address",
          "name": "account",
          "type": "address"
        }
      ],
      "name": "OwnableUnauthorizedAccount",
      "type": "error"
    },
    {
      "anonymous": false,
      "inputs": [
        {
          "indexed": true,
          "internalType": "address",
          "name": "owner",
          "type": "address"
        },
        {
          "indexed": true,
          "internalType": "address",
          "name": "approved",
          "type": "address"
        },
        {
          "indexed": true,
          "internalType": "uint256",
          "name": "tokenId",
          "type": "uint256"
        }
      ],
      "name": "Approval",
      "type": "event"
    },
    {
      "anonymous": false,
      "inputs": [
        {
          "indexed": true,
          "internalType": "address",
          "name": "owner",
          "type": "address"
        },
        {
          "indexed": true,
          "internalType": "address",
          "name": "operator",
          "type": "address"
        },
        {
          "indexed": false,
          "internalType": "bool",
          "name": "approved",
          "type": "bool"
        }
      ],
      "name": "ApprovalForAll",
      "type": "event"
    },
    {
      "anonymous": false,
      "inputs": [
        {
          "indexed": false,
          "internalType": "uint256",
          "name": "_fromTokenId",
          "type": "uint256"
        },
        {
          "indexed": false,
          "internalType": "uint256",
          "name": "_toTokenId",
          "type": "uint256"
        }
      ],
      "name": "BatchMetadataUpdate",
      "type": "event"
    },
    {
      "anonymous": false,
      "inputs": [
        {
          "indexed": false,
          "internalType": "uint256",
          "name": "_tokenId",
          "type": "uint256"
        }
      ],
      "name": "MetadataUpdate",
      "type": "event"
    },
    {
      "anonymous": false,
      "inputs": [
        {
          "indexed": true,
          "internalType": "address",
          "name": "previousOwner",
          "type": "address"
        },
        {
          "indexed": true,
          "internalType": "address",
          "name": "newOwner",
          "type": "address"
        }
      ],
      "name": "OwnershipTransferred",
      "type": "event"
    },
    {
      "anonymous": false,
      "inputs": [
        {
          "indexed": true,
          "internalType": "address",
          "name": "from",
          "type": "address"
        },
        {
          "indexed": true,
          "internalType": "address",
          "name": "to",
          "type": "address"
        },
        {
          "indexed": true,
          "internalType": "uint256",
          "name": "tokenId",
          "type": "uint256"
        }
      ],
      "name": "Transfer",
      "type": "event"
    },
    {
      "inputs": [],
      "name": "MINT_PRICE",
      "outputs": [
        {
          "internalType": "uint256",
          "name": "",
          "type": "uint256"
        }
      ],
      "stateMutability": "view",
      "type": "function"
    },
    {
      "inputs": [
        {
          "internalType": "address",
          "name": "minter",
          "type": "address"
        }
      ],
      "name": "addInstitution",
      "outputs": [],
      "stateMutability": "nonpayable",
      "type": "function"
    },
    {
      "inputs": [
        {
          "internalType": "address",
          "name": "to",
          "type": "address"
        },
        {
          "internalType": "uint256",
          "name": "tokenId",
          "type": "uint256"
        }
      ],
      "name": "approve",
      "outputs": [],
      "stateMutability": "nonpayable",
      "type": "function"
    },
    {
      "inputs": [
        {
          "internalType": "address",
          "name": "owner",
          "type": "address"
        }
      ],
      "name": "balanceOf",
      "outputs": [
        {
          "internalType": "uint256",
          "name": "",
          "type": "uint256"
        }
      ],
      "stateMutability": "view",
      "type": "function"
    },
    {
      "inputs": [
        {
          "internalType": "uint256",
          "name": "tokenId",
          "type": "uint256"
        }
      ],
      "name": "getApproved",
      "outputs": [
        {
          "internalType": "address",
          "name": "",
          "type": "address"
        }
      ],
      "stateMutability": "view",
      "type": "function"
    },
    {
      "inputs": [
        {
          "internalType": "address",
          "name": "caller",
          "type": "address"
        }
      ],
      "name": "isAddressAllowed",
      "outputs": [
        {
          "internalType": "bool",
          "name": "",
          "type": "bool"
        }
      ],
      "stateMutability": "view",
      "type": "function"
    },
    {
      "inputs": [
        {
          "internalType": "address",
          "name": "owner",
          "type": "address"
        },
        {
          "internalType": "address",
          "name": "operator",
          "type": "address"
        }
      ],
      "name": "isApprovedForAll",
      "outputs": [
        {
          "internalType": "bool",
          "name": "",
          "type": "bool"
        }
      ],
      "stateMutability": "view",
      "type": "function"
    },
    {
      "inputs": [
        {
          "internalType": "address",
          "name": "to",
          "type": "address"
        },
        {
          "internalType": "string",
          "name": "uri",
          "type": "string"
        }
      ],
      "name": "issue",
      "outputs": [],
      "stateMutability": "payable",
      "type": "function"
    },
    {
      "inputs": [
        {
          "internalType": "uint256",
          "name": "",
          "type": "uint256"
        }
      ],
      "name": "minters",
      "outputs": [
        {
          "internalType": "address",
          "name": "",
          "type": "address"
        }
      ],
      "stateMutability": "view",
      "type": "function"
    },
    {
      "inputs": [],
      "name": "name",
      "outputs": [
        {
          "internalType": "string",
          "name": "",
          "type": "string"
        }
      ],
      "stateMutability": "view",
      "type": "function"
    },
    {
      "inputs": [],
      "name": "owner",
      "outputs": [
        {
          "internalType": "address",
          "name": "",
          "type": "address"
        }
      ],
      "stateMutability": "view",
      "type": "function"
    },
    {
      "inputs": [
        {
          "internalType": "uint256",
          "name": "tokenId",
          "type": "uint256"
        }
      ],
      "name": "ownerOf",
      "outputs": [
        {
          "internalType": "address",
          "name": "",
          "type": "address"
        }
      ],
      "stateMutability": "view",
      "type": "function"
    },
    {
      "inputs": [
        {
          "internalType": "address",
          "name": "removed",
          "type": "address"
        }
      ],
      "name": "removeInstitution",
      "outputs": [],
      "stateMutability": "nonpayable",
      "type": "function"
    },
    {
      "inputs": [],
      "name": "renounceOwnership",
      "outputs": [],
      "stateMutability": "nonpayable",
      "type": "function"
    },
    {
      "inputs": [
        {
          "internalType": "address",
          "name": "from",
          "type": "address"
        },
        {
          "internalType": "address",
          "name": "to",
          "type": "address"
        },
        {
          "internalType": "uint256",
          "name": "tokenId",
          "type": "uint256"
        }
      ],
      "name": "safeTransferFrom",
      "outputs": [],
      "stateMutability": "nonpayable",
      "type": "function"
    },
    {
      "inputs": [
        {
          "internalType": "address",
          "name": "from",
          "type": "address"
        },
        {
          "internalType": "address",
          "name": "to",
          "type": "address"
        },
        {
          "internalType": "uint256",
          "name": "tokenId",
          "type": "uint256"
        },
        {
          "internalType": "bytes",
          "name": "data",
          "type": "bytes"
        }
      ],
      "name": "safeTransferFrom",
      "outputs": [],
      "stateMutability": "nonpayable",
      "type": "function"
    },
    {
      "inputs": [
        {
          "internalType": "address",
          "name": "operator",
          "type": "address"
        },
        {
          "internalType": "bool",
          "name": "approved",
          "type": "bool"
        }
      ],
      "name": "setApprovalForAll",
      "outputs": [],
      "stateMutability": "nonpayable",
      "type": "function"
    },
    {
      "inputs": [
        {
          "internalType": "bytes4",
          "name": "interfaceId",
          "type": "bytes4"
        }
      ],
      "name": "supportsInterface",
      "outputs": [
        {
          "internalType": "bool",
          "name": "",
          "type": "bool"
        }
      ],
      "stateMutability": "view",
      "type": "function"
    },
    {
      "inputs": [],
      "name": "symbol",
      "outputs": [
        {
          "internalType": "string",
          "name": "",
          "type": "string"
        }
      ],
      "stateMutability": "view",
      "type": "function"
    },
    {
      "inputs": [
        {
          "internalType": "uint256",
          "name": "index",
          "type": "uint256"
        }
      ],
      "name": "tokenByIndex",
      "outputs": [
        {
          "internalType": "uint256",
          "name": "",
          "type": "uint256"
        }
      ],
      "stateMutability": "view",
      "type": "function"
    },
    {
      "inputs": [
        {
          "internalType": "address",
          "name": "owner",
          "type": "address"
        },
        {
          "internalType": "uint256",
          "name": "index",
          "type": "uint256"
        }
      ],
      "name": "tokenOfOwnerByIndex",
      "outputs": [
        {
          "internalType": "uint256",
          "name": "",
          "type": "uint256"
        }
      ],
      "stateMutability": "view",
      "type": "function"
    },
    {
      "inputs": [
        {
          "internalType": "uint256",
          "name": "tokenId",
          "type": "uint256"
        }
      ],
      "name": "tokenURI",
      "outputs": [
        {
          "internalType": "string",
          "name": "",
          "type": "string"
        }
      ],
      "stateMutability": "view",
      "type": "function"
    },
    {
      "inputs": [],
      "name": "totalSupply",
      "outputs": [
        {
          "internalType": "uint256",
          "name": "",
          "type": "uint256"
        }
      ],
      "stateMutability": "view",
      "type": "function"
    },
    {
      "inputs": [
        {
          "internalType": "address",
          "name": "from",
          "type": "address"
        },
        {
          "internalType": "address",
          "name": "to",
          "type": "address"
        },
        {
          "internalType": "uint256",
          "name": "tokenId",
          "type": "uint256"
        }
      ],
      "name": "transferFrom",
      "outputs": [],
      "stateMutability": "nonpayable",
      "type": "function"
    },
    {
      "inputs": [
        {
          "internalType": "address",
          "name": "newOwner",
          "type": "address"
        }
      ],
      "name": "transferOwnership",
      "outputs": [],
      "stateMutability": "nonpayable",
      "type": "function"
    },
    {
      "inputs": [],
      "name": "withdraw",
      "outputs": [],
      "stateMutability": "nonpayable",
      "type": "function"
    }
  ],
  "bytecode": "0x6080604052674563918244f40000600e553480156200001d57600080fd5b5060405162003d8f38038062003d8f833981810160405281019062000043919062000294565b806040518060400160405280600781526020017f4f70656e446f63000000000000000000000000000000000000000000000000008152506040518060400160405280600281526020017f484d0000000000000000000000000000000000000000000000000000000000008152508160009081620000c1919062000540565b508060019081620000d3919062000540565b505050600073ffffffffffffffffffffffffffffffffffffffff168173ffffffffffffffffffffffffffffffffffffffff16036200014b5760006040517f1e4fbdf700000000000000000000000000000000000000000000000000000000815260040162000142919062000638565b60405180910390fd5b6200015c816200016460201b60201c565b505062000655565b6000600b60009054906101000a900473ffffffffffffffffffffffffffffffffffffffff16905081600b60006101000a81548173ffffffffffffffffffffffffffffffffffffffff021916908373ffffffffffffffffffffffffffffffffffffffff1602179055508173ffffffffffffffffffffffffffffffffffffffff168173ffffffffffffffffffffffffffffffffffffffff167f8be0079c531659141344cd1fd0a4f28419497f9722a3daafe3b4186f6b6457e060405160405180910390a35050565b600080fd5b600073ffffffffffffffffffffffffffffffffffffffff82169050919050565b60006200025c826200022f565b9050919050565b6200026e816200024f565b81146200027a57600080fd5b50565b6000815190506200028e8162000263565b92915050565b600060208284031215620002ad57620002ac6200022a565b5b6000620002bd848285016200027d565b91505092915050565b600081519050919050565b7f4e487b7100000000000000000000000000000000000000000000000000000000600052604160045260246000fd5b7f4e487b7100000000000000000000000000000000000000000000000000000000600052602260045260246000fd5b600060028204905060018216806200034857607f821691505b6020821081036200035e576200035d62000300565b5b50919050565b60008190508160005260206000209050919050565b60006020601f8301049050919050565b600082821b905092915050565b600060088302620003c87fffffffffffffffffffffffffffffffffffffffffffffffffffffffffffffffff8262000389565b620003d4868362000389565b95508019841693508086168417925050509392505050565b6000819050919050565b6000819050919050565b6000620004216200041b6200041584620003ec565b620003f6565b620003ec565b9050919050565b6000819050919050565b6200043d8362000400565b620004556200044c8262000428565b84845462000396565b825550505050565b600090565b6200046c6200045d565b6200047981848462000432565b505050565b5b81811015620004a1576200049560008262000462565b6001810190506200047f565b5050565b601f821115620004f057620004ba8162000364565b620004c58462000379565b81016020851015620004d5578190505b620004ed620004e48562000379565b8301826200047e565b50505b505050565b600082821c905092915050565b60006200051560001984600802620004f5565b1980831691505092915050565b600062000530838362000502565b9150826002028217905092915050565b6200054b82620002c6565b67ffffffffffffffff811115620005675762000566620002d1565b5b6200057382546200032f565b62000580828285620004a5565b600060209050601f831160018114620005b85760008415620005a3578287015190505b620005af858262000522565b8655506200061f565b601f198416620005c88662000364565b60005b82811015620005f257848901518255600182019150602085019450602081019050620005cb565b868310156200061257848901516200060e601f89168262000502565b8355505b6001600288020188555050505b505050505050565b62000632816200024f565b82525050565b60006020820190506200064f600083018462000627565b92915050565b61372a80620006656000396000f3fe6080604052600436106101815760003560e01c8063715018a6116100d1578063a22cb4651161008a578063c002d23d11610064578063c002d23d14610583578063c87b56dd146105ae578063e985e9c5146105eb578063f2fde38b1461062857610181565b8063a22cb46514610508578063af5b229114610531578063b88d4fde1461055a57610181565b8063715018a6146103f85780638623ec7b1461040f5780638747d5ed1461044c5780638da5cb5b146104755780638fa2a903146104a057806395d89b41146104dd57610181565b806323b872dd1161013e57806342842e0e1161011857806342842e0e146103185780634f6ccce7146103415780636352211e1461037e57806370a08231146103bb57610181565b806323b872dd1461029b5780632f745c59146102c45780633ccfd60b1461030157610181565b806301ffc9a71461018657806304b444d9146101c357806306fdde03146101df578063081812fc1461020a578063095ea7b31461024757806318160ddd14610270575b600080fd5b34801561019257600080fd5b506101ad60048036038101906101a8919061289e565b610651565b6040516101ba91906128e6565b60405180910390f35b6101dd60048036038101906101d89190612aa5565b610663565b005b3480156101eb57600080fd5b506101f4610722565b6040516102019190612b80565b60405180910390f35b34801561021657600080fd5b50610231600480360381019061022c9190612bd8565b6107b4565b60405161023e9190612c14565b60405180910390f35b34801561025357600080fd5b5061026e60048036038101906102699190612c2f565b6107d0565b005b34801561027c57600080fd5b506102856107e6565b6040516102929190612c7e565b60405180910390f35b3480156102a757600080fd5b506102c260048036038101906102bd9190612c99565b6107f3565b005b3480156102d057600080fd5b506102eb60048036038101906102e69190612c2f565b6108f5565b6040516102f89190612c7e565b60405180910390f35b34801561030d57600080fd5b5061031661099e565b005b34801561032457600080fd5b5061033f600480360381019061033a9190612c99565b610a39565b005b34801561034d57600080fd5b5061036860048036038101906103639190612bd8565b610a59565b6040516103759190612c7e565b60405180910390f35b34801561038a57600080fd5b506103a560048036038101906103a09190612bd8565b610acf565b6040516103b29190612c14565b60405180910390f35b3480156103c757600080fd5b506103e260048036038101906103dd9190612cec565b610ae1565b6040516103ef9190612c7e565b60405180910390f35b34801561040457600080fd5b5061040d610b9b565b005b34801561041b57600080fd5b5061043660048036038101906104319190612bd8565b610baf565b6040516104439190612c14565b60405180910390f35b34801561045857600080fd5b50610473600480360381019061046e9190612cec565b610bee565b005b34801561048157600080fd5b5061048a610d41565b6040516104979190612c14565b60405180910390f35b3480156104ac57600080fd5b506104c760048036038101906104c29190612cec565b610d6b565b6040516104d491906128e6565b60405180910390f35b3480156104e957600080fd5b506104f2610e19565b6040516104ff9190612b80565b60405180910390f35b34801561051457600080fd5b5061052f600480360381019061052a9190612d45565b610eab565b005b34801561053d57600080fd5b5061055860048036038101906105539190612cec565b610ec1565b005b34801561056657600080fd5b50610581600480360381019061057c9190612e26565b610f78565b005b34801561058f57600080fd5b50610598610f95565b6040516105a59190612c7e565b60405180910390f35b3480156105ba57600080fd5b506105d560048036038101906105d09190612bd8565b610f9b565b6040516105e29190612b80565b60405180910390f35b3480156105f757600080fd5b50610612600480360381019061060d9190612ea9565b610fad565b60405161061f91906128e6565b60405180910390f35b34801561063457600080fd5b5061064f600480360381019061064a9190612cec565b611041565b005b600061065c826110c7565b9050919050565b600e543411156106a8576040517f08c379a000000000000000000000000000000000000000000000000000000000815260040161069f90612f35565b60405180910390fd5b6106b133610d6b565b6106f0576040517f08c379a00000000000000000000000000000000000000000000000000000000081526004016106e790612fa1565b60405180910390fd5b6000600c6000815461070190612ff0565b91905081905590506107138382611128565b61071d8183611146565b505050565b60606000805461073190613067565b80601f016020809104026020016040519081016040528092919081815260200182805461075d90613067565b80156107aa5780601f1061077f576101008083540402835291602001916107aa565b820191906000526020600020905b81548152906001019060200180831161078d57829003601f168201915b5050505050905090565b60006107bf826111a2565b506107c98261122a565b9050919050565b6107e282826107dd611267565b61126f565b5050565b6000600880549050905090565b600073ffffffffffffffffffffffffffffffffffffffff168273ffffffffffffffffffffffffffffffffffffffff16036108655760006040517f64a0ae9200000000000000000000000000000000000000000000000000000000815260040161085c9190612c14565b60405180910390fd5b60006108798383610874611267565b611281565b90508373ffffffffffffffffffffffffffffffffffffffff168173ffffffffffffffffffffffffffffffffffffffff16146108ef578382826040517f64283d7b0000000000000000000000000000000000000000000000000000000081526004016108e693929190613098565b60405180910390fd5b50505050565b600061090083610ae1565b82106109455782826040517fa57d13dc00000000000000000000000000000000000000000000000000000000815260040161093c9291906130cf565b60405180910390fd5b600660008473ffffffffffffffffffffffffffffffffffffffff1673ffffffffffffffffffffffffffffffffffffffff168152602001908152602001600020600083815260200190815260200160002054905092915050565b6109a6611297565b600047116109e9576040517f08c379a00000000000000000000000000000000000000000000000000000000081526004016109e090613144565b60405180910390fd5b6109f1610d41565b73ffffffffffffffffffffffffffffffffffffffff166108fc479081150290604051600060405180830381858888f19350505050158015610a36573d6000803e3d6000fd5b50565b610a5483838360405180602001604052806000815250610f78565b505050565b6000610a636107e6565b8210610aa9576000826040517fa57d13dc000000000000000000000000000000000000000000000000000000008152600401610aa09291906130cf565b60405180910390fd5b60088281548110610abd57610abc613164565b5b90600052602060002001549050919050565b6000610ada826111a2565b9050919050565b60008073ffffffffffffffffffffffffffffffffffffffff168273ffffffffffffffffffffffffffffffffffffffff1603610b545760006040517f89c62b64000000000000000000000000000000000000000000000000000000008152600401610b4b9190612c14565b60405180910390fd5b600360008373ffffffffffffffffffffffffffffffffffffffff1673ffffffffffffffffffffffffffffffffffffffff168152602001908152602001600020549050919050565b610ba3611297565b610bad600061131e565b565b600d8181548110610bbf57600080fd5b906000526020600020016000915054906101000a900473ffffffffffffffffffffffffffffffffffffffff1681565b610bf6611297565b6000610c01826113e4565b9050600d805490508110610c4a576040517f08c379a0000000000000000000000000000000000000000000000000000000008152600401610c41906131df565b60405180910390fd5b600d6001600d80549050610c5e91906131ff565b81548110610c6f57610c6e613164565b5b9060005260206000200160009054906101000a900473ffffffffffffffffffffffffffffffffffffffff16600d8281548110610cae57610cad613164565b5b9060005260206000200160006101000a81548173ffffffffffffffffffffffffffffffffffffffff021916908373ffffffffffffffffffffffffffffffffffffffff160217905550600d805480610d0857610d07613233565b5b6001900381819060005260206000200160006101000a81549073ffffffffffffffffffffffffffffffffffffffff021916905590555050565b6000600b60009054906101000a900473ffffffffffffffffffffffffffffffffffffffff16905090565b600080600090505b600d80549050811015610e0e578273ffffffffffffffffffffffffffffffffffffffff16600d8281548110610dab57610daa613164565b5b9060005260206000200160009054906101000a900473ffffffffffffffffffffffffffffffffffffffff1673ffffffffffffffffffffffffffffffffffffffff1603610dfb576001915050610e14565b8080610e0690612ff0565b915050610d73565b50600090505b919050565b606060018054610e2890613067565b80601f0160208091040260200160405190810160405280929190818152602001828054610e5490613067565b8015610ea15780601f10610e7657610100808354040283529160200191610ea1565b820191906000526020600020905b815481529060010190602001808311610e8457829003601f168201915b5050505050905090565b610ebd610eb6611267565b83836114b0565b5050565b610ec9611297565b610ed281610d6b565b15610f12576040517f08c379a0000000000000000000000000000000000000000000000000000000008152600401610f09906132ae565b60405180910390fd5b600d819080600181540180825580915050600190039060005260206000200160009091909190916101000a81548173ffffffffffffffffffffffffffffffffffffffff021916908373ffffffffffffffffffffffffffffffffffffffff16021790555050565b610f838484846107f3565b610f8f8484848461161f565b50505050565b600e5481565b6060610fa6826117d6565b9050919050565b6000600560008473ffffffffffffffffffffffffffffffffffffffff1673ffffffffffffffffffffffffffffffffffffffff16815260200190815260200160002060008373ffffffffffffffffffffffffffffffffffffffff1673ffffffffffffffffffffffffffffffffffffffff16815260200190815260200160002060009054906101000a900460ff16905092915050565b611049611297565b600073ffffffffffffffffffffffffffffffffffffffff168173ffffffffffffffffffffffffffffffffffffffff16036110bb5760006040517f1e4fbdf70000000000000000000000000000000000000000000000000000000081526004016110b29190612c14565b60405180910390fd5b6110c48161131e565b50565b6000634906490660e01b7bffffffffffffffffffffffffffffffffffffffffffffffffffffffff1916827bffffffffffffffffffffffffffffffffffffffffffffffffffffffff191614806111215750611120826118e9565b5b9050919050565b611142828260405180602001604052806000815250611963565b5050565b80600a60008481526020019081526020016000209081611166919061347a565b507ff8e1a15aba9398e019f0b49df1a4fde98ee17ae345cb5f6b5e2c27f5033e8ce7826040516111969190612c7e565b60405180910390a15050565b6000806111ae8361197f565b9050600073ffffffffffffffffffffffffffffffffffffffff168173ffffffffffffffffffffffffffffffffffffffff160361122157826040517f7e2732890000000000000000000000000000000000000000000000000000000081526004016112189190612c7e565b60405180910390fd5b80915050919050565b60006004600083815260200190815260200160002060009054906101000a900473ffffffffffffffffffffffffffffffffffffffff169050919050565b600033905090565b61127c83838360016119bc565b505050565b600061128e848484611b81565b90509392505050565b61129f611267565b73ffffffffffffffffffffffffffffffffffffffff166112bd610d41565b73ffffffffffffffffffffffffffffffffffffffff161461131c576112e0611267565b6040517f118cdaa70000000000000000000000000000000000000000000000000000000081526004016113139190612c14565b60405180910390fd5b565b6000600b60009054906101000a900473ffffffffffffffffffffffffffffffffffffffff16905081600b60006101000a81548173ffffffffffffffffffffffffffffffffffffffff021916908373ffffffffffffffffffffffffffffffffffffffff1602179055508173ffffffffffffffffffffffffffffffffffffffff168173ffffffffffffffffffffffffffffffffffffffff167f8be0079c531659141344cd1fd0a4f28419497f9722a3daafe3b4186f6b6457e060405160405180910390a35050565b600080600090505b600d80549050811015611486578273ffffffffffffffffffffffffffffffffffffffff16600d828154811061142457611423613164565b5b9060005260206000200160009054906101000a900473ffffffffffffffffffffffffffffffffffffffff1673ffffffffffffffffffffffffffffffffffffffff160361147357809150506114ab565b808061147e90612ff0565b9150506113ec565b507fffffffffffffffffffffffffffffffffffffffffffffffffffffffffffffffff90505b919050565b600073ffffffffffffffffffffffffffffffffffffffff168273ffffffffffffffffffffffffffffffffffffffff160361152157816040517f5b08ba180000000000000000000000000000000000000000000000000000000081526004016115189190612c14565b60405180910390fd5b80600560008573ffffffffffffffffffffffffffffffffffffffff1673ffffffffffffffffffffffffffffffffffffffff16815260200190815260200160002060008473ffffffffffffffffffffffffffffffffffffffff1673ffffffffffffffffffffffffffffffffffffffff16815260200190815260200160002060006101000a81548160ff0219169083151502179055508173ffffffffffffffffffffffffffffffffffffffff168373ffffffffffffffffffffffffffffffffffffffff167f17307eab39ab6107e8899845ad3d59bd9653f200f220920489ca2b5937696c318360405161161291906128e6565b60405180910390a3505050565b60008373ffffffffffffffffffffffffffffffffffffffff163b11156117d0578273ffffffffffffffffffffffffffffffffffffffff1663150b7a02611663611267565b8685856040518563ffffffff1660e01b815260040161168594939291906135a1565b6020604051808303816000875af19250505080156116c157506040513d601f19601f820116820180604052508101906116be9190613602565b60015b611745573d80600081146116f1576040519150601f19603f3d011682016040523d82523d6000602084013e6116f6565b606091505b50600081510361173d57836040517f64a0ae920000000000000000000000000000000000000000000000000000000081526004016117349190612c14565b60405180910390fd5b805181602001fd5b63150b7a0260e01b7bffffffffffffffffffffffffffffffffffffffffffffffffffffffff1916817bffffffffffffffffffffffffffffffffffffffffffffffffffffffff1916146117ce57836040517f64a0ae920000000000000000000000000000000000000000000000000000000081526004016117c59190612c14565b60405180910390fd5b505b50505050565b60606117e1826111a2565b506000600a6000848152602001908152602001600020805461180290613067565b80601f016020809104026020016040519081016040528092919081815260200182805461182e90613067565b801561187b5780601f106118505761010080835404028352916020019161187b565b820191906000526020600020905b81548152906001019060200180831161185e57829003601f168201915b50505050509050600061188c611c9e565b905060008151036118a15781925050506118e4565b6000825111156118d65780826040516020016118be92919061366b565b604051602081830303815290604052925050506118e4565b6118df84611cbe565b925050505b919050565b60007f780e9d63000000000000000000000000000000000000000000000000000000007bffffffffffffffffffffffffffffffffffffffffffffffffffffffff1916827bffffffffffffffffffffffffffffffffffffffffffffffffffffffff1916148061195c575061195b82611d27565b5b9050919050565b61196d8383611e09565b61197a600084848461161f565b505050565b60006002600083815260200190815260200160002060009054906101000a900473ffffffffffffffffffffffffffffffffffffffff169050919050565b80806119f55750600073ffffffffffffffffffffffffffffffffffffffff168273ffffffffffffffffffffffffffffffffffffffff1614155b15611b29576000611a05846111a2565b9050600073ffffffffffffffffffffffffffffffffffffffff168373ffffffffffffffffffffffffffffffffffffffff1614158015611a7057508273ffffffffffffffffffffffffffffffffffffffff168173ffffffffffffffffffffffffffffffffffffffff1614155b8015611a835750611a818184610fad565b155b15611ac557826040517fa9fbf51f000000000000000000000000000000000000000000000000000000008152600401611abc9190612c14565b60405180910390fd5b8115611b2757838573ffffffffffffffffffffffffffffffffffffffff168273ffffffffffffffffffffffffffffffffffffffff167f8c5be1e5ebec7d5bd14f71427d1e84f3dd0314c0f7b2291e5b200ac8c7c3b92560405160405180910390a45b505b836004600085815260200190815260200160002060006101000a81548173ffffffffffffffffffffffffffffffffffffffff021916908373ffffffffffffffffffffffffffffffffffffffff16021790555050505050565b600080611b8f858585611f02565b9050600073ffffffffffffffffffffffffffffffffffffffff168173ffffffffffffffffffffffffffffffffffffffff1603611bd357611bce8461211c565b611c12565b8473ffffffffffffffffffffffffffffffffffffffff168173ffffffffffffffffffffffffffffffffffffffff1614611c1157611c108185612165565b5b5b600073ffffffffffffffffffffffffffffffffffffffff168573ffffffffffffffffffffffffffffffffffffffff1603611c5457611c4f846122c6565b611c93565b8473ffffffffffffffffffffffffffffffffffffffff168173ffffffffffffffffffffffffffffffffffffffff1614611c9257611c918585612397565b5b5b809150509392505050565b60606040518060600160405280603681526020016136bf60369139905090565b6060611cc9826111a2565b506000611cd4611c9e565b90506000815111611cf45760405180602001604052806000815250611d1f565b80611cfe84612422565b604051602001611d0f92919061366b565b6040516020818303038152906040525b915050919050565b60007f80ac58cd000000000000000000000000000000000000000000000000000000007bffffffffffffffffffffffffffffffffffffffffffffffffffffffff1916827bffffffffffffffffffffffffffffffffffffffffffffffffffffffff19161480611df257507f5b5e139f000000000000000000000000000000000000000000000000000000007bffffffffffffffffffffffffffffffffffffffffffffffffffffffff1916827bffffffffffffffffffffffffffffffffffffffffffffffffffffffff1916145b80611e025750611e01826124f0565b5b9050919050565b600073ffffffffffffffffffffffffffffffffffffffff168273ffffffffffffffffffffffffffffffffffffffff1603611e7b5760006040517f64a0ae92000000000000000000000000000000000000000000000000000000008152600401611e729190612c14565b60405180910390fd5b6000611e8983836000611281565b9050600073ffffffffffffffffffffffffffffffffffffffff168173ffffffffffffffffffffffffffffffffffffffff1614611efd5760006040517f73c6ac6e000000000000000000000000000000000000000000000000000000008152600401611ef49190612c14565b60405180910390fd5b505050565b600080611f0e8461197f565b9050600073ffffffffffffffffffffffffffffffffffffffff168373ffffffffffffffffffffffffffffffffffffffff1614611f5057611f4f81848661255a565b5b600073ffffffffffffffffffffffffffffffffffffffff168173ffffffffffffffffffffffffffffffffffffffff1614611fe157611f926000856000806119bc565b6001600360008373ffffffffffffffffffffffffffffffffffffffff1673ffffffffffffffffffffffffffffffffffffffff168152602001908152602001600020600082825403925050819055505b600073ffffffffffffffffffffffffffffffffffffffff168573ffffffffffffffffffffffffffffffffffffffff1614612064576001600360008773ffffffffffffffffffffffffffffffffffffffff1673ffffffffffffffffffffffffffffffffffffffff168152602001908152602001600020600082825401925050819055505b846002600086815260200190815260200160002060006101000a81548173ffffffffffffffffffffffffffffffffffffffff021916908373ffffffffffffffffffffffffffffffffffffffff160217905550838573ffffffffffffffffffffffffffffffffffffffff168273ffffffffffffffffffffffffffffffffffffffff167fddf252ad1be2c89b69c2b068fc378daa952ba7f163c4a11628f55a4df523b3ef60405160405180910390a4809150509392505050565b6008805490506009600083815260200190815260200160002081905550600881908060018154018082558091505060019003906000526020600020016000909190919091505550565b600061217083610ae1565b9050600060076000848152602001908152602001600020549050818114612255576000600660008673ffffffffffffffffffffffffffffffffffffffff1673ffffffffffffffffffffffffffffffffffffffff168152602001908152602001600020600084815260200190815260200160002054905080600660008773ffffffffffffffffffffffffffffffffffffffff1673ffffffffffffffffffffffffffffffffffffffff168152602001908152602001600020600084815260200190815260200160002081905550816007600083815260200190815260200160002081905550505b6007600084815260200190815260200160002060009055600660008573ffffffffffffffffffffffffffffffffffffffff1673ffffffffffffffffffffffffffffffffffffffff16815260200190815260200160002060008381526020019081526020016000206000905550505050565b600060016008805490506122da91906131ff565b905060006009600084815260200190815260200160002054905060006008838154811061230a57612309613164565b5b90600052602060002001549050806008838154811061232c5761232b613164565b5b90600052602060002001819055508160096000838152602001908152602001600020819055506009600085815260200190815260200160002060009055600880548061237b5761237a613233565b5b6001900381819060005260206000200160009055905550505050565b600060016123a484610ae1565b6123ae91906131ff565b905081600660008573ffffffffffffffffffffffffffffffffffffffff1673ffffffffffffffffffffffffffffffffffffffff168152602001908152602001600020600083815260200190815260200160002081905550806007600084815260200190815260200160002081905550505050565b6060600060016124318461261e565b01905060008167ffffffffffffffff8111156124505761244f61297a565b5b6040519080825280601f01601f1916602001820160405280156124825781602001600182028036833780820191505090505b509050600082602001820190505b6001156124e5578080600190039150507f3031323334353637383961626364656600000000000000000000000000000000600a86061a8153600a85816124d9576124d861368f565b5b04945060008503612490575b819350505050919050565b60007f01ffc9a7000000000000000000000000000000000000000000000000000000007bffffffffffffffffffffffffffffffffffffffffffffffffffffffff1916827bffffffffffffffffffffffffffffffffffffffffffffffffffffffff1916149050919050565b612565838383612771565b61261957600073ffffffffffffffffffffffffffffffffffffffff168373ffffffffffffffffffffffffffffffffffffffff16036125da57806040517f7e2732890000000000000000000000000000000000000000000000000000000081526004016125d19190612c7e565b60405180910390fd5b81816040517f177e802f0000000000000000000000000000000000000000000000000000000081526004016126109291906130cf565b60405180910390fd5b505050565b600080600090507a184f03e93ff9f4daa797ed6e38ed64bf6a1f010000000000000000831061267c577a184f03e93ff9f4daa797ed6e38ed64bf6a1f01000000000000000083816126725761267161368f565b5b0492506040810190505b6d04ee2d6d415b85acef810000000083106126b9576d04ee2d6d415b85acef810000000083816126af576126ae61368f565b5b0492506020810190505b662386f26fc1000083106126e857662386f26fc1000083816126de576126dd61368f565b5b0492506010810190505b6305f5e1008310612711576305f5e10083816127075761270661368f565b5b0492506008810190505b612710831061273657612710838161272c5761272b61368f565b5b0492506004810190505b60648310612759576064838161274f5761274e61368f565b5b0492506002810190505b600a8310612768576001810190505b80915050919050565b60008073ffffffffffffffffffffffffffffffffffffffff168373ffffffffffffffffffffffffffffffffffffffff161415801561282957508273ffffffffffffffffffffffffffffffffffffffff168473ffffffffffffffffffffffffffffffffffffffff1614806127ea57506127e98484610fad565b5b8061282857508273ffffffffffffffffffffffffffffffffffffffff166128108361122a565b73ffffffffffffffffffffffffffffffffffffffff16145b5b90509392505050565b6000604051905090565b600080fd5b600080fd5b60007fffffffff0000000000000000000000000000000000000000000000000000000082169050919050565b61287b81612846565b811461288657600080fd5b50565b60008135905061289881612872565b92915050565b6000602082840312156128b4576128b361283c565b5b60006128c284828501612889565b91505092915050565b60008115159050919050565b6128e0816128cb565b82525050565b60006020820190506128fb60008301846128d7565b92915050565b600073ffffffffffffffffffffffffffffffffffffffff82169050919050565b600061292c82612901565b9050919050565b61293c81612921565b811461294757600080fd5b50565b60008135905061295981612933565b92915050565b600080fd5b600080fd5b6000601f19601f8301169050919050565b7f4e487b7100000000000000000000000000000000000000000000000000000000600052604160045260246000fd5b6129b282612969565b810181811067ffffffffffffffff821117156129d1576129d061297a565b5b80604052505050565b60006129e4612832565b90506129f082826129a9565b919050565b600067ffffffffffffffff821115612a1057612a0f61297a565b5b612a1982612969565b9050602081019050919050565b82818337600083830152505050565b6000612a48612a43846129f5565b6129da565b905082815260208101848484011115612a6457612a63612964565b5b612a6f848285612a26565b509392505050565b600082601f830112612a8c57612a8b61295f565b5b8135612a9c848260208601612a35565b91505092915050565b60008060408385031215612abc57612abb61283c565b5b6000612aca8582860161294a565b925050602083013567ffffffffffffffff811115612aeb57612aea612841565b5b612af785828601612a77565b9150509250929050565b600081519050919050565b600082825260208201905092915050565b60005b83811015612b3b578082015181840152602081019050612b20565b60008484015250505050565b6000612b5282612b01565b612b5c8185612b0c565b9350612b6c818560208601612b1d565b612b7581612969565b840191505092915050565b60006020820190508181036000830152612b9a8184612b47565b905092915050565b6000819050919050565b612bb581612ba2565b8114612bc057600080fd5b50565b600081359050612bd281612bac565b92915050565b600060208284031215612bee57612bed61283c565b5b6000612bfc84828501612bc3565b91505092915050565b612c0e81612921565b82525050565b6000602082019050612c296000830184612c05565b92915050565b60008060408385031215612c4657612c4561283c565b5b6000612c548582860161294a565b9250506020612c6585828601612bc3565b9150509250929050565b612c7881612ba2565b82525050565b6000602082019050612c936000830184612c6f565b92915050565b600080600060608486031215612cb257612cb161283c565b5b6000612cc08682870161294a565b9350506020612cd18682870161294a565b9250506040612ce286828701612bc3565b9150509250925092565b600060208284031215612d0257612d0161283c565b5b6000612d108482850161294a565b91505092915050565b612d22816128cb565b8114612d2d57600080fd5b50565b600081359050612d3f81612d19565b92915050565b60008060408385031215612d5c57612d5b61283c565b5b6000612d6a8582860161294a565b9250506020612d7b85828601612d30565b9150509250929050565b600067ffffffffffffffff821115612da057612d9f61297a565b5b612da982612969565b9050602081019050919050565b6000612dc9612dc484612d85565b6129da565b905082815260208101848484011115612de557612de4612964565b5b612df0848285612a26565b509392505050565b600082601f830112612e0d57612e0c61295f565b5b8135612e1d848260208601612db6565b91505092915050565b60008060008060808587031215612e4057612e3f61283c565b5b6000612e4e8782880161294a565b9450506020612e5f8782880161294a565b9350506040612e7087828801612bc3565b925050606085013567ffffffffffffffff811115612e9157612e90612841565b5b612e9d87828801612df8565b91505092959194509250565b60008060408385031215612ec057612ebf61283c565b5b6000612ece8582860161294a565b9250506020612edf8582860161294a565b9150509250929050565b7f4e6f7420456e6f676820457468657275656d0000000000000000000000000000600082015250565b6000612f1f601283612b0c565b9150612f2a82612ee9565b602082019050919050565b60006020820190508181036000830152612f4e81612f12565b9050919050565b7f596f7520617265204e6f7420616e20496e737469747574696f6e000000000000600082015250565b6000612f8b601a83612b0c565b9150612f9682612f55565b602082019050919050565b60006020820190508181036000830152612fba81612f7e565b9050919050565b7f4e487b7100000000000000000000000000000000000000000000000000000000600052601160045260246000fd5b6000612ffb82612ba2565b91507fffffffffffffffffffffffffffffffffffffffffffffffffffffffffffffffff820361302d5761302c612fc1565b5b600182019050919050565b7f4e487b7100000000000000000000000000000000000000000000000000000000600052602260045260246000fd5b6000600282049050600182168061307f57607f821691505b60208210810361309257613091613038565b5b50919050565b60006060820190506130ad6000830186612c05565b6130ba6020830185612c6f565b6130c76040830184612c05565b949350505050565b60006040820190506130e46000830185612c05565b6130f16020830184612c6f565b9392505050565b7f4e6f2062616c616e636520696e2074686520636f6e7472616374000000000000600082015250565b600061312e601a83612b0c565b9150613139826130f8565b602082019050919050565b6000602082019050818103600083015261315d81613121565b9050919050565b7f4e487b7100000000000000000000000000000000000000000000000000000000600052603260045260246000fd5b7f496e737469747574696f6e206973206e6f742061646465640000000000000000600082015250565b60006131c9601883612b0c565b91506131d482613193565b602082019050919050565b600060208201905081810360008301526131f8816131bc565b9050919050565b600061320a82612ba2565b915061321583612ba2565b925082820390508181111561322d5761322c612fc1565b5b92915050565b7f4e487b7100000000000000000000000000000000000000000000000000000000600052603160045260246000fd5b7f496e737469747574696f6e20697320416c726561647920616464656400000000600082015250565b6000613298601c83612b0c565b91506132a382613262565b602082019050919050565b600060208201905081810360008301526132c78161328b565b9050919050565b60008190508160005260206000209050919050565b60006020601f8301049050919050565b600082821b905092915050565b6000600883026133307fffffffffffffffffffffffffffffffffffffffffffffffffffffffffffffffff826132f3565b61333a86836132f3565b95508019841693508086168417925050509392505050565b6000819050919050565b600061337761337261336d84612ba2565b613352565b612ba2565b9050919050565b6000819050919050565b6133918361335c565b6133a561339d8261337e565b848454613300565b825550505050565b600090565b6133ba6133ad565b6133c5818484613388565b505050565b5b818110156133e9576133de6000826133b2565b6001810190506133cb565b5050565b601f82111561342e576133ff816132ce565b613408846132e3565b81016020851015613417578190505b61342b613423856132e3565b8301826133ca565b50505b505050565b600082821c905092915050565b600061345160001984600802613433565b1980831691505092915050565b600061346a8383613440565b9150826002028217905092915050565b61348382612b01565b67ffffffffffffffff81111561349c5761349b61297a565b5b6134a68254613067565b6134b18282856133ed565b600060209050601f8311600181146134e457600084156134d2578287015190505b6134dc858261345e565b865550613544565b601f1984166134f2866132ce565b60005b8281101561351a578489015182556001820191506020850194506020810190506134f5565b868310156135375784890151613533601f891682613440565b8355505b6001600288020188555050505b505050505050565b600081519050919050565b600082825260208201905092915050565b60006135738261354c565b61357d8185613557565b935061358d818560208601612b1d565b61359681612969565b840191505092915050565b60006080820190506135b66000830187612c05565b6135c36020830186612c05565b6135d06040830185612c6f565b81810360608301526135e28184613568565b905095945050505050565b6000815190506135fc81612872565b92915050565b6000602082840312156136185761361761283c565b5b6000613626848285016135ed565b91505092915050565b600081905092915050565b600061364582612b01565b61364f818561362f565b935061365f818560208601612b1d565b80840191505092915050565b6000613677828561363a565b9150613683828461363a565b91508190509392505050565b7f4e487b7100000000000000000000000000000000000000000000000000000000600052601260045260246000fdfe697066733a2f2f516d576478557a37736350486f5466747948564345527335556761616970746b41467067355039765867693977352fa26469706673582212203102df9e461b4e99ae1f96754f7a16b6e587e63e2a3738aaba30651fbdab742c64736f6c63430008140033",
  "linkReferences": {},
  "deployedLinkReferences": {}
}